{
  "contractName": "BettingGameRegistry",
  "abi": [
    {
      "inputs": [
        {
          "internalType": "address",
          "name": "_nativeTokenAddress",
          "type": "address"
        },
        {
          "internalType": "address",
          "name": "_vrfCoordinatorAddress",
          "type": "address"
        },
        {
          "internalType": "address",
          "name": "_linkTokenAddress",
          "type": "address"
        },
        {
          "internalType": "bytes32",
          "name": "_keyHash",
          "type": "bytes32"
        },
        {
          "internalType": "uint256",
          "name": "_fee",
          "type": "uint256"
        }
      ],
      "stateMutability": "nonpayable",
      "type": "constructor"
    },
    {
      "anonymous": false,
      "inputs": [
        {
          "indexed": false,
          "internalType": "uint256",
          "name": "bettingGameId",
          "type": "uint256"
        },
        {
          "indexed": false,
          "internalType": "address",
          "name": "creator",
          "type": "address"
        },
        {
          "indexed": false,
          "internalType": "uint256",
          "name": "sides",
          "type": "uint256"
        },
        {
          "indexed": false,
          "internalType": "uint256",
          "name": "expiryTime",
          "type": "uint256"
        }
      ],
      "name": "BettingGameCreated",
      "type": "event"
    },
    {
      "anonymous": false,
      "inputs": [
        {
          "indexed": true,
          "internalType": "address",
          "name": "previousOwner",
          "type": "address"
        },
        {
          "indexed": true,
          "internalType": "address",
          "name": "newOwner",
          "type": "address"
        }
      ],
      "name": "OwnershipTransferred",
      "type": "event"
    },
    {
      "inputs": [
        {
          "internalType": "uint256",
          "name": "",
          "type": "uint256"
        }
      ],
      "name": "bettingGameDataRegistry",
      "outputs": [
        {
          "internalType": "address",
          "name": "",
          "type": "address"
        }
      ],
      "stateMutability": "view",
      "type": "function"
    },
    {
      "inputs": [],
      "name": "nativeTokenAddress",
      "outputs": [
        {
          "internalType": "address",
          "name": "",
          "type": "address"
        }
      ],
      "stateMutability": "view",
      "type": "function"
    },
    {
      "inputs": [],
      "name": "owner",
      "outputs": [
        {
          "internalType": "address",
          "name": "",
          "type": "address"
        }
      ],
      "stateMutability": "view",
      "type": "function"
    },
    {
      "inputs": [],
      "name": "renounceOwnership",
      "outputs": [],
      "stateMutability": "nonpayable",
      "type": "function"
    },
    {
      "inputs": [
        {
          "internalType": "address",
          "name": "newOwner",
          "type": "address"
        }
      ],
      "name": "transferOwnership",
      "outputs": [],
      "stateMutability": "nonpayable",
      "type": "function"
    },
    {
      "inputs": [
        {
          "internalType": "uint256",
          "name": "_bettingGameId",
          "type": "uint256"
        }
      ],
      "name": "getBettingGameById",
      "outputs": [
        {
          "internalType": "address",
          "name": "",
          "type": "address"
        }
      ],
      "stateMutability": "view",
      "type": "function"
    },
    {
      "inputs": [
        {
          "internalType": "address",
          "name": "newNativeTokenAddress",
          "type": "address"
        }
      ],
      "name": "setNativeTokenAddress",
      "outputs": [],
      "stateMutability": "nonpayable",
      "type": "function"
    },
    {
      "inputs": [
        {
          "internalType": "uint256",
          "name": "_sides",
          "type": "uint256"
        }
      ],
      "name": "createGame",
      "outputs": [],
      "stateMutability": "nonpayable",
      "type": "function"
    }
  ],
  "bytecode": "0x608060405234801561001057600080fd5b50604051611a71380380611a7183398101604081905261002f916100f5565b61003833610089565b600180546001600160a01b03199081166001600160a01b039788161790915560028054821695871695909517909455600380549094169290941691909117909155600455600555600060065561014b565b600080546001600160a01b038381166001600160a01b0319831681178455604051919092169283917f8be0079c531659141344cd1fd0a4f28419497f9722a3daafe3b4186f6b6457e09190a35050565b80516001600160a01b03811681146100f057600080fd5b919050565b600080600080600060a0868803121561010d57600080fd5b610116866100d9565b9450610124602087016100d9565b9350610132604087016100d9565b6060870151608090970151959894975095949392505050565b6119178061015a6000396000f3fe608060405234801561001057600080fd5b50600436106100885760003560e01c8063bea4b43d1161005b578063bea4b43d146100ea578063d317e2b114610113578063e82368ab1461013c578063f2fde38b1461014f57600080fd5b806348e837b91461008d5780634d0047ee146100a2578063715018a6146100d15780638da5cb5b146100d9575b600080fd5b6100a061009b36600461045c565b610162565b005b6001546100b5906001600160a01b031681565b6040516001600160a01b03909116815260200160405180910390f35b6100a06102ba565b6000546001600160a01b03166100b5565b6100b56100f836600461045c565b6007602052600090815260409020546001600160a01b031681565b6100b561012136600461045c565b6000908152600760205260409020546001600160a01b031690565b6100a061014a366004610475565b6102f9565b6100a061015d366004610475565b610345565b6001546001600160a01b03166000610181662386f26fc10000846103e0565b60405163079cc67960e41b8152336004820152602481018290529091506001600160a01b038316906379cc679090604401600060405180830381600087803b1580156101cc57600080fd5b505af11580156101e0573d6000803e3d6000fd5b5050600254600354600454600554600154604051600097506001600160a01b039586169650938516949293919233928b929091169061021e9061044f565b6001600160a01b0397881681529587166020870152604086019490945260608501929092528416608084015260a083015290911660c082015260e001604051809103906000f080158015610276573d6000803e3d6000fd5b5060068054600090815260076020526040902080546001600160a01b0319166001600160a01b038416179055549091506102b19060016103f3565b60065550505050565b6000546001600160a01b031633146102ed5760405162461bcd60e51b81526004016102e49061049e565b60405180910390fd5b6102f760006103ff565b565b6000546001600160a01b031633146103235760405162461bcd60e51b81526004016102e49061049e565b600180546001600160a01b0319166001600160a01b0392909216919091179055565b6000546001600160a01b0316331461036f5760405162461bcd60e51b81526004016102e49061049e565b6001600160a01b0381166103d45760405162461bcd60e51b815260206004820152602660248201527f4f776e61626c653a206e6577206f776e657220697320746865207a65726f206160448201526564647265737360d01b60648201526084016102e4565b6103dd816103ff565b50565b60006103ec82846104e9565b9392505050565b60006103ec8284610508565b600080546001600160a01b038381166001600160a01b0319831681178455604051919092169283917f8be0079c531659141344cd1fd0a4f28419497f9722a3daafe3b4186f6b6457e09190a35050565b6113c18061052183390190565b60006020828403121561046e57600080fd5b5035919050565b60006020828403121561048757600080fd5b81356001600160a01b03811681146103ec57600080fd5b6020808252818101527f4f776e61626c653a2063616c6c6572206973206e6f7420746865206f776e6572604082015260600190565b634e487b7160e01b600052601160045260246000fd5b6000816000190483118215151615610503576105036104d3565b500290565b6000821982111561051b5761051b6104d3565b50019056fe60c06040523480156200001157600080fd5b50604051620013c1380380620013c18339810160408190526200003491620000db565b6001600160a01b0387811660a05286811660805260018690556002859055600380549185166001600160a01b031992831617905560048054909116905560058290556006805460ff191690556200008e4261070862000155565b600755600880546001600160a01b0319166001600160a01b0392909216919091179055506200017c945050505050565b80516001600160a01b0381168114620000d657600080fd5b919050565b600080600080600080600060e0888a031215620000f757600080fd5b6200010288620000be565b96506200011260208901620000be565b955060408801519450606088015193506200013060808901620000be565b925060a088015191506200014760c08901620000be565b905092959891949750929550565b600082198211156200017757634e487b7160e01b600052601160045260246000fd5b500190565b60805160a051611211620001b06000396000818161057501526109e701526000818161045401526109b801526112116000f3fe608060405234801561001057600080fd5b50600436106100ea5760003560e01c806399bc0aea1161008c578063d3522d5111610066578063d3522d51146101c3578063dfbf53ae146101cc578063ea8a1af0146101df578063f9609f08146101e757600080fd5b806399bc0aea14610192578063c5eea4c81461019b578063d2ef7398146101bb57600080fd5b80634d0047ee116100c85780634d0047ee14610143578063534db0e21461015657806393e84cd91461016957806394985ddd1461017f57600080fd5b806302d05d3f146100ef578063200d2ed21461011f5780633ccfd60b14610139575b600080fd5b600354610102906001600160a01b031681565b6040516001600160a01b0390911681526020015b60405180910390f35b60065461012c9060ff1681565b6040516101169190610eb3565b6101416101fa565b005b600854610102906001600160a01b031681565b600454610102906001600160a01b031681565b6101716103b5565b604051908152602001610116565b61014161018d366004610edb565b61056a565b61017160075481565b6101716101a9366004610f19565b600c6020526000908152604090205481565b6101416105ec565b61017160055481565b600a54610102906001600160a01b031681565b610141610793565b6101416101f5366004610f34565b61080d565b6003546001600160a01b031633148061021d57506004546001600160a01b031633145b6102425760405162461bcd60e51b815260040161023990610f67565b60405180910390fd5b60016007544210158061026b5750600160065460ff16600181111561026957610269610e9d565b145b6102b75760405162461bcd60e51b815260206004820152601a60248201527f546869732067616d6520686173206e6f742065787069726564210000000000006044820152606401610239565b600a546001600160a01b0316331461031d5760405162461bcd60e51b8152602060048201526024808201527f596f7520617265206e6f74207468652077696e6e6572206f6620746869732067604482015263616d652160e01b6064820152608401610239565b6009546040516370a0823160e01b81523060048201526001600160a01b03909116906103b190339083906370a082319060240160206040518083038186803b15801561036857600080fd5b505afa15801561037c573d6000803e3d6000fd5b505050506040513d601f19601f820116820180604052508101906103a09190610ff4565b6001600160a01b038416919061094c565b5050565b6003546000906001600160a01b03163314806103db57506004546001600160a01b031633145b6103f75760405162461bcd60e51b815260040161023990610f67565b6000600754421080156104205750600060065460ff16600181111561041e5761041e610e9d565b145b61043c5760405162461bcd60e51b815260040161023990610fc4565b6002546040516370a0823160e01b81523060048201527f00000000000000000000000000000000000000000000000000000000000000006001600160a01b0316906370a082319060240160206040518083038186803b15801561049e57600080fd5b505afa1580156104b2573d6000803e3d6000fd5b505050506040513d601f19601f820116820180604052508101906104d69190610ff4565b10156105385760405162461bcd60e51b815260206004820152602b60248201527f4e6f7420656e6f756768204c494e4b202d2066696c6c20636f6e74726163742060448201526a1dda5d1a0819985d58d95d60aa1b6064820152608401610239565b6105466001546002546109b4565b6000818152600b6020526040902080546001600160a01b0319163317905592915050565b336001600160a01b037f000000000000000000000000000000000000000000000000000000000000000016146105e25760405162461bcd60e51b815260206004820152601f60248201527f4f6e6c7920565246436f6f7264696e61746f722063616e2066756c66696c6c006044820152606401610239565b6103b18282610b3e565b60006003546001600160a01b03163314156106535760405162461bcd60e51b815260206004820152602160248201527f596f7520617265207468652063726561746f72206f6620746869732067616d656044820152602160f81b6064820152608401610239565b6004546001600160a01b0316156106ac5760405162461bcd60e51b815260206004820152601e60248201527f4368616c6c656e67657220706f736974696f6e2069732066696c6c65642100006044820152606401610239565b6000600754421080156106d55750600060065460ff1660018111156106d3576106d3610e9d565b145b6106f15760405162461bcd60e51b815260040161023990610fc4565b6008546005546001600160a01b039091169060009061071890662386f26fc1000090610c63565b60405163079cc67960e41b8152336004820152602481018290529091506001600160a01b038316906379cc679090604401600060405180830381600087803b15801561076357600080fd5b505af1158015610777573d6000803e3d6000fd5b5050600480546001600160a01b03191633179055505050505050565b60016003546001600160a01b031633146107fd5760405162461bcd60e51b815260206004820152602560248201527f596f7520617265206e6f74207468652063726561746f72206f6620746869732060448201526467616d652160d81b6064820152608401610239565b506006805460ff19166001179055565b6003546001600160a01b031633148061083057506004546001600160a01b031633145b61084c5760405162461bcd60e51b815260040161023990610f67565b6000600754421080156108755750600060065460ff16600181111561087357610873610e9d565b145b6108915760405162461bcd60e51b815260040161023990610fc4565b60008290506000816001600160a01b031663feaf968c6040518163ffffffff1660e01b815260040160a06040518083038186803b1580156108d157600080fd5b505afa1580156108e5573d6000803e3d6000fd5b505050506040513d601f19601f820116820180604052508101906109099190611027565b5050509150506000859050600061092c61092584600554610c63565b6064610c76565b90506109436001600160a01b038316333084610c82565b50505050505050565b6040516001600160a01b0383166024820152604481018290526109af90849063a9059cbb60e01b906064015b60408051601f198184030181529190526020810180516001600160e01b03166001600160e01b031990931692909217909152610cc0565b505050565b60007f00000000000000000000000000000000000000000000000000000000000000006001600160a01b0316634000aea07f000000000000000000000000000000000000000000000000000000000000000084866000604051602001610a24929190918252602082015260400190565b6040516020818303038152906040526040518463ffffffff1660e01b8152600401610a51939291906110cf565b602060405180830381600087803b158015610a6b57600080fd5b505af1158015610a7f573d6000803e3d6000fd5b505050506040513d601f19601f82011682018060405250810190610aa391906110ff565b5060008381526020818152604080832054815180840188905280830185905230606082015260808082018390528351808303909101815260a090910190925281519183019190912086845292909152610afd906001611137565b60008581526020818152604091829020929092558051808301879052808201849052815180820383018152606090910190915280519101205b949350505050565b6000828152600b60205260409020546005546001600160a01b0390911690610b669083611165565b610b71906001611137565b6001600160a01b038083166000908152600c6020526040808220939093556003549091168152205415801590610bc057506004546001600160a01b03166000908152600c602052604090205415155b156109af576006805460ff191660011790556004546001600160a01b039081166000908152600c6020526040808220546003549093168252902054600291610c0791611137565b610c119190611165565b610c3c57600354600a80546001600160a01b0319166001600160a01b03909216919091179055505050565b600454600a80546001600160a01b0319166001600160a01b03909216919091179055505050565b6000610c6f8284611179565b9392505050565b6000610c6f8284611198565b6040516001600160a01b0380851660248301528316604482015260648101829052610cba9085906323b872dd60e01b90608401610978565b50505050565b6000610d15826040518060400160405280602081526020017f5361666545524332303a206c6f772d6c6576656c2063616c6c206661696c6564815250856001600160a01b0316610d929092919063ffffffff16565b8051909150156109af5780806020019051810190610d3391906110ff565b6109af5760405162461bcd60e51b815260206004820152602a60248201527f5361666545524332303a204552433230206f7065726174696f6e20646964206e6044820152691bdd081cdd58d8d9595960b21b6064820152608401610239565b6060610b36848460008585843b610deb5760405162461bcd60e51b815260206004820152601d60248201527f416464726573733a2063616c6c20746f206e6f6e2d636f6e74726163740000006044820152606401610239565b600080866001600160a01b03168587604051610e0791906111ac565b60006040518083038185875af1925050503d8060008114610e44576040519150601f19603f3d011682016040523d82523d6000602084013e610e49565b606091505b5091509150610e59828286610e64565b979650505050505050565b60608315610e73575081610c6f565b825115610e835782518084602001fd5b8160405162461bcd60e51b815260040161023991906111c8565b634e487b7160e01b600052602160045260246000fd5b6020810160028310610ed557634e487b7160e01b600052602160045260246000fd5b91905290565b60008060408385031215610eee57600080fd5b50508035926020909101359150565b80356001600160a01b0381168114610f1457600080fd5b919050565b600060208284031215610f2b57600080fd5b610c6f82610efd565b60008060408385031215610f4757600080fd5b610f5083610efd565b9150610f5e60208401610efd565b90509250929050565b60208082526037908201527f596f7520617265206e6f74207468652063726561746f72206f7220746865206360408201527f68616c6c656e676572206f6620746869732067616d6521000000000000000000606082015260800190565b602080825260169082015275546869732067616d652068617320657870697265642160501b604082015260600190565b60006020828403121561100657600080fd5b5051919050565b805169ffffffffffffffffffff81168114610f1457600080fd5b600080600080600060a0868803121561103f57600080fd5b6110488661100d565b945060208601519350604086015192506060860151915061106b6080870161100d565b90509295509295909350565b60005b8381101561109257818101518382015260200161107a565b83811115610cba5750506000910152565b600081518084526110bb816020860160208601611077565b601f01601f19169290920160200192915050565b60018060a01b03841681528260208201526060604082015260006110f660608301846110a3565b95945050505050565b60006020828403121561111157600080fd5b81518015158114610c6f57600080fd5b634e487b7160e01b600052601160045260246000fd5b6000821982111561114a5761114a611121565b500190565b634e487b7160e01b600052601260045260246000fd5b6000826111745761117461114f565b500690565b600081600019048311821515161561119357611193611121565b500290565b6000826111a7576111a761114f565b500490565b600082516111be818460208701611077565b9190910192915050565b602081526000610c6f60208301846110a356fea264697066735822122004862a587cf4161b392a614bfb89dd9c1bcd335e60de58a0ec43890bd95bb33d64736f6c63430008090033a264697066735822122032c080fe2d2377b3f3f9432c83f4d89b1f36bb103c33a9c4bb71b63288e8af4264736f6c63430008090033",
  "immutableReferences": {},
  "source": "// SPDX-License-Identifier: MIT\npragma solidity >=0.4.17 <0.9.0;\n\nimport \"@openzeppelin/contracts/access/Ownable.sol\";\nimport \"@openzeppelin/contracts/utils/math/SafeMath.sol\";\nimport \"@openzeppelin/contracts/token/ERC20/utils/SafeERC20.sol\";\nimport \"@chainlink/contracts/src/v0.8/interfaces/AggregatorV3Interface.sol\";\nimport \"./BettingGame.sol\";\nimport \"../interfaces/IERC20Burnable.sol\";\n\ncontract BettingGameRegistry is Ownable {\n    using SafeMath for uint256;\n    using SafeERC20 for IERC20;\n    using SafeERC20 for IERC20Burnable;\n\n    event BettingGameCreated(\n        uint256 bettingGameId,\n        address creator,\n        uint256 sides,\n        uint256 expiryTime\n    );\n\n    address public nativeTokenAddress;\n    address internal vrfCoordinatorAddress;\n    address internal linkTokenAddress;\n    bytes32 internal keyHash;\n    uint256 internal fee;\n    uint256 private bettingGameCount;\n    mapping(uint256 => address) public bettingGameDataRegistry;\n\n    constructor(\n        address _nativeTokenAddress,\n        address _vrfCoordinatorAddress,\n        address _linkTokenAddress,\n        bytes32 _keyHash,\n        uint256 _fee\n    ) {\n        nativeTokenAddress = _nativeTokenAddress;\n        vrfCoordinatorAddress = _vrfCoordinatorAddress;\n        linkTokenAddress = _linkTokenAddress;\n        keyHash = _keyHash;\n        fee = _fee;\n        bettingGameCount = 0;\n    }\n\n    /**\n     * Making sure that the `_bettingGameId` is valid\n     */\n    modifier onlyExistingGame(uint256 _bettingGameId) {\n        require(_bettingGameId < bettingGameCount);\n        _;\n    }\n\n    function getBettingGameById(uint256 _bettingGameId)\n        public\n        view\n        returns (address)\n    {\n        return bettingGameDataRegistry[_bettingGameId];\n    }\n\n    function setNativeTokenAddress(address newNativeTokenAddress)\n        public\n        onlyOwner\n    {\n        nativeTokenAddress = newNativeTokenAddress;\n    }\n\n    function createGame(uint256 _sides) public {\n        // 1. Burn some token\n        IERC20Burnable nativeToken = IERC20Burnable(nativeTokenAddress);\n        uint256 burnPrice = SafeMath.mul(0.01 * 10**18, _sides);\n        nativeToken.burnFrom(msg.sender, burnPrice);\n\n        // 2. Create new `BettingGame` smart contract\n        BettingGame newBettingGame = new BettingGame(\n            vrfCoordinatorAddress,\n            linkTokenAddress,\n            keyHash,\n            fee,\n            msg.sender,\n            _sides,\n            nativeTokenAddress\n        );\n        bettingGameDataRegistry[bettingGameCount] = address(newBettingGame);\n\n        // 3. Increase Betting Game Counter\n        bettingGameCount = SafeMath.add(bettingGameCount, 1);\n    }\n}\n",
  "sourcePath": "/home/yosephkurniasoenggoro/Documents/GitHub/moralis-betting-protocol/Truffle/contracts/betting/BettingGameRegistry.sol",
  "compiler": {
    "name": "solc",
    "version": "0.8.9+commit.e5eed63a.Emscripten.clang"
  },
  "schemaVersion": "3.4.3",
  "updatedAt": "2021-11-15T08:20:05.916Z",
  "devdoc": {
    "kind": "dev",
    "methods": {
      "owner()": {
        "details": "Returns the address of the current owner."
      },
      "renounceOwnership()": {
        "details": "Leaves the contract without owner. It will not be possible to call `onlyOwner` functions anymore. Can only be called by the current owner. NOTE: Renouncing ownership will leave the contract without an owner, thereby removing any functionality that is only available to the owner."
      },
      "transferOwnership(address)": {
        "details": "Transfers ownership of the contract to a new account (`newOwner`). Can only be called by the current owner."
      }
    },
    "version": 1
  },
  "userdoc": {
    "kind": "user",
    "methods": {},
    "version": 1
  }
}