{
  "contractName": "BettingGame",
  "abi": [
    {
      "inputs": [
        {
          "internalType": "address",
          "name": "_vrfCoordinatorAddress",
          "type": "address"
        },
        {
          "internalType": "address",
          "name": "_linkTokenAddress",
          "type": "address"
        },
        {
          "internalType": "bytes32",
          "name": "_keyHash",
          "type": "bytes32"
        },
        {
          "internalType": "uint256",
          "name": "_fee",
          "type": "uint256"
        },
        {
          "internalType": "address",
          "name": "_creator",
          "type": "address"
        },
        {
          "internalType": "uint256",
          "name": "_sides",
          "type": "uint256"
        },
        {
          "internalType": "address",
          "name": "_nativeTokenAddress",
          "type": "address"
        },
        {
          "internalType": "address",
          "name": "_priceConverterAddress",
          "type": "address"
        }
      ],
      "stateMutability": "nonpayable",
      "type": "constructor"
    },
    {
      "anonymous": false,
      "inputs": [
        {
          "indexed": false,
          "internalType": "address",
          "name": "challenger",
          "type": "address"
        }
      ],
      "name": "Challenge",
      "type": "event"
    },
    {
      "anonymous": false,
      "inputs": [
        {
          "indexed": false,
          "internalType": "address",
          "name": "tokenAddress",
          "type": "address"
        },
        {
          "indexed": false,
          "internalType": "uint256",
          "name": "tokenAmount",
          "type": "uint256"
        }
      ],
      "name": "Deposit",
      "type": "event"
    },
    {
      "anonymous": false,
      "inputs": [
        {
          "indexed": false,
          "internalType": "address",
          "name": "playerAddress",
          "type": "address"
        },
        {
          "indexed": false,
          "internalType": "uint256",
          "name": "randomResult",
          "type": "uint256"
        }
      ],
      "name": "Play",
      "type": "event"
    },
    {
      "anonymous": false,
      "inputs": [
        {
          "indexed": false,
          "internalType": "address",
          "name": "winner",
          "type": "address"
        },
        {
          "indexed": false,
          "internalType": "address",
          "name": "tokenAddress",
          "type": "address"
        },
        {
          "indexed": false,
          "internalType": "uint256",
          "name": "tokenAmount",
          "type": "uint256"
        }
      ],
      "name": "Withdraw",
      "type": "event"
    },
    {
      "inputs": [],
      "name": "challenger",
      "outputs": [
        {
          "internalType": "address",
          "name": "",
          "type": "address"
        }
      ],
      "stateMutability": "view",
      "type": "function"
    },
    {
      "inputs": [],
      "name": "creator",
      "outputs": [
        {
          "internalType": "address",
          "name": "",
          "type": "address"
        }
      ],
      "stateMutability": "view",
      "type": "function"
    },
    {
      "inputs": [],
      "name": "depositTokenAddress",
      "outputs": [
        {
          "internalType": "address",
          "name": "",
          "type": "address"
        }
      ],
      "stateMutability": "view",
      "type": "function"
    },
    {
      "inputs": [],
      "name": "expiryTime",
      "outputs": [
        {
          "internalType": "uint256",
          "name": "",
          "type": "uint256"
        }
      ],
      "stateMutability": "view",
      "type": "function"
    },
    {
      "inputs": [],
      "name": "isWithdrawn",
      "outputs": [
        {
          "internalType": "bool",
          "name": "",
          "type": "bool"
        }
      ],
      "stateMutability": "view",
      "type": "function"
    },
    {
      "inputs": [],
      "name": "nativeTokenAddress",
      "outputs": [
        {
          "internalType": "address",
          "name": "",
          "type": "address"
        }
      ],
      "stateMutability": "view",
      "type": "function"
    },
    {
      "inputs": [
        {
          "internalType": "address",
          "name": "",
          "type": "address"
        }
      ],
      "name": "playerBetRecordRegistry",
      "outputs": [
        {
          "internalType": "uint256",
          "name": "",
          "type": "uint256"
        }
      ],
      "stateMutability": "view",
      "type": "function"
    },
    {
      "inputs": [
        {
          "internalType": "bytes32",
          "name": "requestId",
          "type": "bytes32"
        },
        {
          "internalType": "uint256",
          "name": "randomness",
          "type": "uint256"
        }
      ],
      "name": "rawFulfillRandomness",
      "outputs": [],
      "stateMutability": "nonpayable",
      "type": "function"
    },
    {
      "inputs": [],
      "name": "sides",
      "outputs": [
        {
          "internalType": "uint256",
          "name": "",
          "type": "uint256"
        }
      ],
      "stateMutability": "view",
      "type": "function"
    },
    {
      "inputs": [],
      "name": "status",
      "outputs": [
        {
          "internalType": "enum BettingGame.BettingGameStatus",
          "name": "",
          "type": "uint8"
        }
      ],
      "stateMutability": "view",
      "type": "function"
    },
    {
      "inputs": [],
      "name": "winner",
      "outputs": [
        {
          "internalType": "address",
          "name": "",
          "type": "address"
        }
      ],
      "stateMutability": "view",
      "type": "function"
    },
    {
      "inputs": [],
      "name": "getBettingGameInfo",
      "outputs": [
        {
          "internalType": "address",
          "name": "",
          "type": "address"
        },
        {
          "internalType": "address",
          "name": "",
          "type": "address"
        },
        {
          "internalType": "uint256",
          "name": "",
          "type": "uint256"
        },
        {
          "internalType": "enum BettingGame.BettingGameStatus",
          "name": "",
          "type": "uint8"
        },
        {
          "internalType": "uint256",
          "name": "",
          "type": "uint256"
        },
        {
          "internalType": "address",
          "name": "",
          "type": "address"
        },
        {
          "internalType": "address",
          "name": "",
          "type": "address"
        },
        {
          "internalType": "bool",
          "name": "",
          "type": "bool"
        },
        {
          "internalType": "uint256",
          "name": "",
          "type": "uint256"
        },
        {
          "internalType": "uint256",
          "name": "",
          "type": "uint256"
        }
      ],
      "stateMutability": "view",
      "type": "function"
    },
    {
      "inputs": [],
      "name": "challenge",
      "outputs": [],
      "stateMutability": "nonpayable",
      "type": "function"
    },
    {
      "inputs": [],
      "name": "cancel",
      "outputs": [],
      "stateMutability": "nonpayable",
      "type": "function"
    },
    {
      "inputs": [],
      "name": "play",
      "outputs": [
        {
          "internalType": "bytes32",
          "name": "requestId",
          "type": "bytes32"
        }
      ],
      "stateMutability": "nonpayable",
      "type": "function"
    },
    {
      "inputs": [
        {
          "internalType": "address",
          "name": "_tokenAddress",
          "type": "address"
        },
        {
          "internalType": "address",
          "name": "_baseAddress",
          "type": "address"
        },
        {
          "internalType": "address",
          "name": "_quoteAddress",
          "type": "address"
        }
      ],
      "name": "deposit",
      "outputs": [],
      "stateMutability": "nonpayable",
      "type": "function"
    },
    {
      "inputs": [],
      "name": "withdraw",
      "outputs": [],
      "stateMutability": "nonpayable",
      "type": "function"
    }
  ],
  "bytecode": "0x60c06040523480156200001157600080fd5b50604051620016fe380380620016fe8339810160408190526200003491620000f4565b6001600160a01b0388811660a05287811660805260018790556002869055600380549186166001600160a01b031992831617905560048054909116905560058390556006805460ff191690556200008e4261070862000181565b600755600880546001600160a01b03199081166001600160a01b0394851617909155600a80548216929093169190911790915560098054909116905550620001a8945050505050565b80516001600160a01b0381168114620000ef57600080fd5b919050565b600080600080600080600080610100898b0312156200011257600080fd5b6200011d89620000d7565b97506200012d60208a01620000d7565b965060408901519550606089015194506200014b60808a01620000d7565b935060a089015192506200016260c08a01620000d7565b91506200017260e08a01620000d7565b90509295985092959890939650565b60008219821115620001a357634e487b7160e01b600052601160045260246000fd5b500190565b60805160a051611522620001dc600039600081816106ff0152610c300152600081816105de0152610c0101526115226000f3fe608060405234801561001057600080fd5b506004361061010b5760003560e01c806393e84cd9116100a2578063c5eea4c811610071578063c5eea4c81461026a578063d2ef73981461028a578063d3522d5114610292578063dfbf53ae1461029b578063ea8a1af0146102ae57600080fd5b806393e84cd91461022557806394985ddd1461023b57806399bc0aea1461024e5780639f1acf441461025757600080fd5b806344aa5700116100de57806344aa5700146101775780634d0047ee1461019b578063534db0e2146101ae57806368bb5d46146101c157600080fd5b806302d05d3f14610110578063200d2ed21461014057806323dc9e371461015a5780633ccfd60b1461016d575b600080fd5b600354610123906001600160a01b031681565b6040516001600160a01b0390911681526020015b60405180910390f35b60065461014d9060ff1681565b60405161013791906111d2565b600954610123906001600160a01b031681565b6101756102b6565b005b600b5461018b90600160a01b900460ff1681565b6040519015158152602001610137565b600854610123906001600160a01b031681565b600454610123906001600160a01b031681565b600354600454600554600654600754600954600b546001600160a01b039687166000818152600d602052604080822054988a16808352918190205490516101379a939992989760ff908116979685169594851694600160a01b9004169291906111e0565b61022d61053f565b604051908152602001610137565b610175610249366004611246565b6106f4565b61022d60075481565b610175610265366004611284565b61077a565b61022d6102783660046112c7565b600d6020526000908152604090205481565b61017561093d565b61022d60055481565b600b54610123906001600160a01b031681565b610175610b1b565b6003546001600160a01b03163314806102d957506004546001600160a01b031633145b6102fe5760405162461bcd60e51b81526004016102f5906112e2565b60405180910390fd5b6001600754421015806103275750600160065460ff1660018111156103255761032561119a565b145b6103735760405162461bcd60e51b815260206004820152601a60248201527f546869732067616d6520686173206e6f7420657870697265642100000000000060448201526064016102f5565b600b546001600160a01b031633146103d95760405162461bcd60e51b8152602060048201526024808201527f596f7520617265206e6f74207468652077696e6e6572206f6620746869732067604482015263616d652160e01b60648201526084016102f5565b600b54600160a01b900460ff16156104455760405162461bcd60e51b815260206004820152602960248201527f5468652066756e6420696e20746869732067616d6520686173206265656e2077604482015268697468647261776e2160b81b60648201526084016102f5565b6009546040516370a0823160e01b81523060048201526001600160a01b039091169060009082906370a082319060240160206040518083038186803b15801561048d57600080fd5b505afa1580156104a1573d6000803e3d6000fd5b505050506040513d601f19601f820116820180604052508101906104c5919061136f565b90506104db6001600160a01b0383163383610b95565b600954604080513381526001600160a01b03909216602083015281018290527f9b1bfa7fa9ee420a16e124f794c35ac9f90472acc99140eb2f6447c714cad8eb9060600160405180910390a15050600b805460ff60a01b1916600160a01b17905550565b6003546000906001600160a01b031633148061056557506004546001600160a01b031633145b6105815760405162461bcd60e51b81526004016102f5906112e2565b6000600754421080156105aa5750600060065460ff1660018111156105a8576105a861119a565b145b6105c65760405162461bcd60e51b81526004016102f59061133f565b6002546040516370a0823160e01b81523060048201527f00000000000000000000000000000000000000000000000000000000000000006001600160a01b0316906370a082319060240160206040518083038186803b15801561062857600080fd5b505afa15801561063c573d6000803e3d6000fd5b505050506040513d601f19601f82011682018060405250810190610660919061136f565b10156106c25760405162461bcd60e51b815260206004820152602b60248201527f4e6f7420656e6f756768204c494e4b202d2066696c6c20636f6e74726163742060448201526a1dda5d1a0819985d58d95d60aa1b60648201526084016102f5565b6106d0600154600254610bfd565b6000818152600c6020526040902080546001600160a01b0319163317905592915050565b336001600160a01b037f0000000000000000000000000000000000000000000000000000000000000000161461076c5760405162461bcd60e51b815260206004820152601f60248201527f4f6e6c7920565246436f6f7264696e61746f722063616e2066756c66696c6c0060448201526064016102f5565b6107768282610d87565b5050565b6003546001600160a01b031633148061079d57506004546001600160a01b031633145b6107b95760405162461bcd60e51b81526004016102f5906112e2565b6000600754421080156107e25750600060065460ff1660018111156107e0576107e061119a565b145b6107fe5760405162461bcd60e51b81526004016102f59061133f565b600a54604051639743665560e01b81526001600160a01b03858116600483015284811660248301526012604483015290911690600090829063974366559060640160206040518083038186803b15801561085757600080fd5b505afa15801561086b573d6000803e3d6000fd5b505050506040513d601f19601f8201168201806040525081019061088f919061136f565b9050600086905060006108ae6108a784600554610ef9565b6064610f0c565b90506108c56001600160a01b038316333084610f18565b6009546001600160a01b03166108f157600980546001600160a01b0319166001600160a01b038a161790555b604080516001600160a01b038a168152602081018390527fe1fffcc4923d04b559f4d29a8bfc6cda04eb5b0d3c460751c2402c5c5cc9109c910160405180910390a15050505050505050565b60006003546001600160a01b03163314156109a45760405162461bcd60e51b815260206004820152602160248201527f596f7520617265207468652063726561746f72206f6620746869732067616d656044820152602160f81b60648201526084016102f5565b6004546001600160a01b0316156109fd5760405162461bcd60e51b815260206004820152601e60248201527f4368616c6c656e67657220706f736974696f6e2069732066696c6c656421000060448201526064016102f5565b600060075442108015610a265750600060065460ff166001811115610a2457610a2461119a565b145b610a425760405162461bcd60e51b81526004016102f59061133f565b6008546005546001600160a01b0390911690600090610a6990662386f26fc1000090610ef9565b60405163079cc67960e41b8152336004820152602481018290529091506001600160a01b038316906379cc679090604401600060405180830381600087803b158015610ab457600080fd5b505af1158015610ac8573d6000803e3d6000fd5b5050600480546001600160a01b031916339081179091556040519081527fc21b87340588bdc78634253d4b0c2c02f475010edc0dc0c201bb0db913fa51a09250602001905060405180910390a150505050565b60016003546001600160a01b03163314610b855760405162461bcd60e51b815260206004820152602560248201527f596f7520617265206e6f74207468652063726561746f72206f6620746869732060448201526467616d652160d81b60648201526084016102f5565b506006805460ff19166001179055565b6040516001600160a01b038316602482015260448101829052610bf890849063a9059cbb60e01b906064015b60408051601f198184030181529190526020810180516001600160e01b03166001600160e01b031990931692909217909152610f50565b505050565b60007f00000000000000000000000000000000000000000000000000000000000000006001600160a01b0316634000aea07f000000000000000000000000000000000000000000000000000000000000000084866000604051602001610c6d929190918252602082015260400190565b6040516020818303038152906040526040518463ffffffff1660e01b8152600401610c9a939291906113e0565b602060405180830381600087803b158015610cb457600080fd5b505af1158015610cc8573d6000803e3d6000fd5b505050506040513d601f19601f82011682018060405250810190610cec9190611410565b5060008381526020818152604080832054815180840188905280830185905230606082015260808082018390528351808303909101815260a090910190925281519183019190912086845292909152610d46906001611448565b600085815260208181526040918290209290925580518083018790528082019390935280518084038201815260609093019052815191012090505b92915050565b6000828152600c60205260408120546005546001600160a01b039091169190610db09084611476565b610dbb906001611448565b6001600160a01b0383166000818152600d6020908152604091829020849055815192835282018390529192507f0c635b74dfccae79c39119dc6d80498e3cdcaae2ab17216ed32fe2ce36cfe09a910160405180910390a16003546001600160a01b03166000908152600d602052604090205415801590610e5457506004546001600160a01b03166000908152600d602052604090205415155b15610ef3576006805460ff191660011790556004546001600160a01b039081166000908152600d6020526040808220546003549093168252902054600291610e9b91611448565b610ea59190611476565b610ed057600354600b80546001600160a01b0319166001600160a01b03909216919091179055610ef3565b600454600b80546001600160a01b0319166001600160a01b039092169190911790555b50505050565b6000610f05828461148a565b9392505050565b6000610f0582846114a9565b6040516001600160a01b0380851660248301528316604482015260648101829052610ef39085906323b872dd60e01b90608401610bc1565b6000610fa5826040518060400160405280602081526020017f5361666545524332303a206c6f772d6c6576656c2063616c6c206661696c6564815250856001600160a01b03166110229092919063ffffffff16565b805190915015610bf85780806020019051810190610fc39190611410565b610bf85760405162461bcd60e51b815260206004820152602a60248201527f5361666545524332303a204552433230206f7065726174696f6e20646964206e6044820152691bdd081cdd58d8d9595960b21b60648201526084016102f5565b60606110318484600085611039565b949350505050565b60608247101561109a5760405162461bcd60e51b815260206004820152602660248201527f416464726573733a20696e73756666696369656e742062616c616e636520666f6044820152651c8818d85b1b60d21b60648201526084016102f5565b843b6110e85760405162461bcd60e51b815260206004820152601d60248201527f416464726573733a2063616c6c20746f206e6f6e2d636f6e747261637400000060448201526064016102f5565b600080866001600160a01b0316858760405161110491906114bd565b60006040518083038185875af1925050503d8060008114611141576040519150601f19603f3d011682016040523d82523d6000602084013e611146565b606091505b5091509150611156828286611161565b979650505050505050565b60608315611170575081610f05565b8251156111805782518084602001fd5b8160405162461bcd60e51b81526004016102f591906114d9565b634e487b7160e01b600052602160045260246000fd5b600281106111ce57634e487b7160e01b600052602160045260246000fd5b9052565b60208101610d8182846111b0565b6001600160a01b038b811682528a81166020830152604082018a905261014082019061120f606084018b6111b0565b608083019890985295871660a08201529390951660c084015290151560e08301526101008201526101200191909152949350505050565b6000806040838503121561125957600080fd5b50508035926020909101359150565b80356001600160a01b038116811461127f57600080fd5b919050565b60008060006060848603121561129957600080fd5b6112a284611268565b92506112b060208501611268565b91506112be60408501611268565b90509250925092565b6000602082840312156112d957600080fd5b610f0582611268565b60208082526037908201527f596f7520617265206e6f74207468652063726561746f72206f7220746865206360408201527f68616c6c656e676572206f6620746869732067616d6521000000000000000000606082015260800190565b602080825260169082015275546869732067616d652068617320657870697265642160501b604082015260600190565b60006020828403121561138157600080fd5b5051919050565b60005b838110156113a357818101518382015260200161138b565b83811115610ef35750506000910152565b600081518084526113cc816020860160208601611388565b601f01601f19169290920160200192915050565b60018060a01b038416815282602082015260606040820152600061140760608301846113b4565b95945050505050565b60006020828403121561142257600080fd5b81518015158114610f0557600080fd5b634e487b7160e01b600052601160045260246000fd5b6000821982111561145b5761145b611432565b500190565b634e487b7160e01b600052601260045260246000fd5b60008261148557611485611460565b500690565b60008160001904831182151516156114a4576114a4611432565b500290565b6000826114b8576114b8611460565b500490565b600082516114cf818460208701611388565b9190910192915050565b602081526000610f0560208301846113b456fea26469706673582212207f43d8d09b6255cddf5d9ab35a7485c10939a155b6948248897ee47aa7113da764736f6c63430008090033",
  "immutableReferences": {
    "73": [
      {
        "length": 32,
        "start": 1502
      },
      {
        "length": 32,
        "start": 3073
      }
    ],
    "75": [
      {
        "length": 32,
        "start": 1791
      },
      {
        "length": 32,
        "start": 3120
      }
    ]
  },
  "source": "// SPDX-License-Identifier: MIT\npragma solidity >=0.4.17 <0.9.0;\n\nimport \"@openzeppelin/contracts/utils/math/SafeMath.sol\";\nimport \"@openzeppelin/contracts/token/ERC20/utils/SafeERC20.sol\";\nimport \"@openzeppelin/contracts/token/ERC20/IERC20.sol\";\nimport \"@chainlink/contracts/src/v0.8/VRFConsumerBase.sol\";\nimport \"../interfaces/IERC20Burnable.sol\";\nimport \"../interfaces/IPriceConverter.sol\";\n\ncontract BettingGame is VRFConsumerBase {\n    using SafeMath for uint256;\n    using SafeERC20 for IERC20;\n\n    enum BettingGameStatus {\n        OPEN,\n        CLOSED\n    }\n\n    event Challenge(address challenger);\n    event Play(address playerAddress, uint256 randomResult);\n    event Deposit(address tokenAddress, uint256 tokenAmount);\n    event Withdraw(address winner, address tokenAddress, uint256 tokenAmount);\n\n    bytes32 internal keyHash;\n    uint256 internal fee;\n    address public creator;\n    address public challenger;\n    uint256 public sides;\n    BettingGameStatus public status;\n    uint256 public expiryTime;\n    address public nativeTokenAddress;\n    address public depositTokenAddress;\n    address priceConverterAddress;\n    address public winner;\n    bool public isWithdrawn;\n\n    mapping(bytes32 => address) requestIdToAddressRegistry;\n    mapping(address => uint256) public playerBetRecordRegistry;\n\n    constructor(\n        address _vrfCoordinatorAddress,\n        address _linkTokenAddress,\n        bytes32 _keyHash,\n        uint256 _fee,\n        address _creator,\n        uint256 _sides,\n        address _nativeTokenAddress,\n        address _priceConverterAddress\n    ) VRFConsumerBase(_vrfCoordinatorAddress, _linkTokenAddress) {\n        keyHash = _keyHash;\n        fee = _fee;\n        creator = _creator;\n        challenger = address(0);\n        sides = _sides;\n        status = BettingGameStatus.OPEN;\n        expiryTime = block.timestamp + 30 minutes;\n        nativeTokenAddress = _nativeTokenAddress;\n        priceConverterAddress = _priceConverterAddress;\n        depositTokenAddress = address(0);\n    }\n\n    /**\n     * Making sure that `_msgSend` is either a creator or not (depends `isEqual`)\n     */\n    modifier onlyCreator(bool isEqual) {\n        if (isEqual) {\n            require(\n                creator == msg.sender,\n                \"You are not the creator of this game!\"\n            );\n        } else {\n            require(creator != msg.sender, \"You are the creator of this game!\");\n        }\n        _;\n    }\n\n    /**\n     * Making sure that `_msgSend` is either the creator or the challenger of the game\n     */\n    modifier onlyCreatorAndChallenger() {\n        require(\n            msg.sender == creator || msg.sender == challenger,\n            \"You are not the creator or the challenger of this game!\"\n        );\n        _;\n    }\n\n    /**\n     * Making sure that the challenger position is not filled\n     */\n    modifier onlyEmptyChallenger() {\n        require(challenger == address(0), \"Challenger position is filled!\");\n        _;\n    }\n\n    /**\n     * Making sure that this game has either expired or not (depends on `isExpired`)\n     */\n    modifier onlyExpiredGame(bool isExpired) {\n        if (isExpired) {\n            require(\n                block.timestamp >= expiryTime ||\n                    status == BettingGameStatus.CLOSED,\n                \"This game has not expired!\"\n            );\n        } else {\n            require(\n                block.timestamp < expiryTime &&\n                    status == BettingGameStatus.OPEN,\n                \"This game has expired!\"\n            );\n        }\n        _;\n    }\n\n    modifier onlyNotWithdrawn() {\n        require(\n            isWithdrawn == false,\n            \"The fund in this game has been withdrawn!\"\n        );\n        _;\n    }\n\n    /**\n     * Making sure that the function has only access to the winner\n     */\n    modifier onlyWinner() {\n        require(msg.sender == winner, \"You are not the winner of this game!\");\n        _;\n    }\n\n    /**\n     * Get Betting Game all public info\n     */\n    function getBettingGameInfo()\n        public\n        view\n        returns (\n            address,\n            address,\n            uint256,\n            BettingGameStatus,\n            uint256,\n            address,\n            address,\n            bool,\n            uint256,\n            uint256\n        )\n    {\n        return (\n            creator,\n            challenger,\n            sides,\n            status,\n            expiryTime,\n            depositTokenAddress,\n            winner,\n            isWithdrawn,\n            playerBetRecordRegistry[creator],\n            playerBetRecordRegistry[challenger]\n        );\n    }\n\n    /**\n     * Allow `_msgSend` address to register as a challenger\n     */\n    function challenge()\n        public\n        onlyCreator(false)\n        onlyEmptyChallenger\n        onlyExpiredGame(false)\n    {\n        IERC20Burnable nativeToken = IERC20Burnable(nativeTokenAddress);\n        uint256 burnPrice = SafeMath.mul(0.01 * 10**18, sides);\n        nativeToken.burnFrom(msg.sender, burnPrice);\n\n        challenger = msg.sender;\n\n        emit Challenge(msg.sender);\n    }\n\n    /**\n     *  Cancel the created Betting Game\n     */\n    function cancel() public onlyCreator(true) {\n        status = BettingGameStatus.CLOSED;\n    }\n\n    /**\n     * Allow player `_msgSend` to place a bet on the game\n     */\n    function play()\n        public\n        onlyCreatorAndChallenger\n        onlyExpiredGame(false)\n        returns (bytes32 requestId)\n    {\n        require(\n            LINK.balanceOf(address(this)) >= fee,\n            \"Not enough LINK - fill contract with faucet\"\n        );\n        requestId = requestRandomness(keyHash, fee);\n        requestIdToAddressRegistry[requestId] = msg.sender;\n    }\n\n    /**\n     * This is a function overriden from Chainlink VRF contract to get the randomness result\n     */\n    function fulfillRandomness(bytes32 requestId, uint256 randomness)\n        internal\n        override\n    {\n        address playerAddress = requestIdToAddressRegistry[requestId];\n        uint256 randomResult = (randomness % sides) + 1;\n        playerBetRecordRegistry[playerAddress] = randomResult;\n\n        emit Play(playerAddress, randomResult);\n\n        if (\n            playerBetRecordRegistry[creator] != 0 &&\n            playerBetRecordRegistry[challenger] != 0\n        ) {\n            // Close the game\n            status = BettingGameStatus.CLOSED;\n\n            if (\n                (playerBetRecordRegistry[creator] +\n                    playerBetRecordRegistry[challenger]) %\n                    2 ==\n                0\n            ) {\n                winner = creator;\n            } else {\n                winner = challenger;\n            }\n        }\n    }\n\n    /**\n     * Handle depositing ERC20 token to the `BettingGame` contract\n     */\n    function deposit(\n        address _tokenAddress,\n        address _baseAddress,\n        address _quoteAddress\n    ) public onlyCreatorAndChallenger onlyExpiredGame(false) {\n        IPriceConverter priceFeed = IPriceConverter(priceConverterAddress);\n\n        // 1. Get Price Feeds Data from Chainlink\n        int256 price = priceFeed.getDerivedPrice(\n            _baseAddress,\n            _quoteAddress,\n            18\n        );\n\n        // 2. Transfer ERC20 token from user to the `BettingGame` contract\n        IERC20 token = IERC20(_tokenAddress);\n        uint256 tokenAmount = SafeMath.div(\n            SafeMath.mul(uint256(price), sides),\n            100\n        );\n        token.safeTransferFrom(msg.sender, address(this), tokenAmount);\n\n        // 3. Set Deposit Token Address when it is empty\n        if (depositTokenAddress == address(0)) {\n            depositTokenAddress = _tokenAddress;\n        }\n\n        emit Deposit(_tokenAddress, tokenAmount);\n    }\n\n    /**\n     * Handle creator and challenger ERC20 token withdrawal after both have played\n     */\n    function withdraw()\n        public\n        onlyCreatorAndChallenger\n        onlyExpiredGame(true)\n        onlyWinner\n        onlyNotWithdrawn\n    {\n        IERC20 token = IERC20(depositTokenAddress);\n        uint256 tokenAmount = token.balanceOf(address(this));\n        token.safeTransfer(msg.sender, tokenAmount);\n\n        emit Withdraw(msg.sender, depositTokenAddress, tokenAmount);\n\n        isWithdrawn = true;\n    }\n}\n",
  "sourcePath": "/home/yosephkurniasoenggoro/Documents/GitHub/moralis-betting-protocol/Truffle/contracts/betting/BettingGame.sol",
  "compiler": {
    "name": "solc",
    "version": "0.8.9+commit.e5eed63a.Emscripten.clang"
  },
  "schemaVersion": "3.4.3",
  "updatedAt": "2021-11-19T13:43:57.006Z",
  "devdoc": {
    "kind": "dev",
    "methods": {},
    "version": 1
  },
  "userdoc": {
    "kind": "user",
    "methods": {
      "cancel()": {
        "notice": "Cancel the created Betting Game"
      },
      "challenge()": {
        "notice": "Allow `_msgSend` address to register as a challenger"
      },
      "deposit(address,address,address)": {
        "notice": "Handle depositing ERC20 token to the `BettingGame` contract"
      },
      "getBettingGameInfo()": {
        "notice": "Get Betting Game all public info"
      },
      "play()": {
        "notice": "Allow player `_msgSend` to place a bet on the game"
      },
      "withdraw()": {
        "notice": "Handle creator and challenger ERC20 token withdrawal after both have played"
      }
    },
    "version": 1
  }
}