{
  "contractName": "BettingGame",
  "abi": [
    {
      "inputs": [
        {
          "internalType": "address",
          "name": "_vrfCoordinatorAddress",
          "type": "address"
        },
        {
          "internalType": "address",
          "name": "_linkTokenAddress",
          "type": "address"
        },
        {
          "internalType": "bytes32",
          "name": "_keyHash",
          "type": "bytes32"
        },
        {
          "internalType": "uint256",
          "name": "_fee",
          "type": "uint256"
        },
        {
          "internalType": "address",
          "name": "_creator",
          "type": "address"
        },
        {
          "internalType": "uint256",
          "name": "_sides",
          "type": "uint256"
        },
        {
          "internalType": "address",
          "name": "_nativeTokenAddress",
          "type": "address"
        }
      ],
      "stateMutability": "nonpayable",
      "type": "constructor"
    },
    {
      "inputs": [],
      "name": "challenger",
      "outputs": [
        {
          "internalType": "address",
          "name": "",
          "type": "address"
        }
      ],
      "stateMutability": "view",
      "type": "function"
    },
    {
      "inputs": [],
      "name": "creator",
      "outputs": [
        {
          "internalType": "address",
          "name": "",
          "type": "address"
        }
      ],
      "stateMutability": "view",
      "type": "function"
    },
    {
      "inputs": [],
      "name": "expiryTime",
      "outputs": [
        {
          "internalType": "uint256",
          "name": "",
          "type": "uint256"
        }
      ],
      "stateMutability": "view",
      "type": "function"
    },
    {
      "inputs": [],
      "name": "nativeTokenAddress",
      "outputs": [
        {
          "internalType": "address",
          "name": "",
          "type": "address"
        }
      ],
      "stateMutability": "view",
      "type": "function"
    },
    {
      "inputs": [
        {
          "internalType": "address",
          "name": "",
          "type": "address"
        }
      ],
      "name": "playerBetRecordRegistry",
      "outputs": [
        {
          "internalType": "uint256",
          "name": "",
          "type": "uint256"
        }
      ],
      "stateMutability": "view",
      "type": "function"
    },
    {
      "inputs": [
        {
          "internalType": "bytes32",
          "name": "requestId",
          "type": "bytes32"
        },
        {
          "internalType": "uint256",
          "name": "randomness",
          "type": "uint256"
        }
      ],
      "name": "rawFulfillRandomness",
      "outputs": [],
      "stateMutability": "nonpayable",
      "type": "function"
    },
    {
      "inputs": [],
      "name": "sides",
      "outputs": [
        {
          "internalType": "uint256",
          "name": "",
          "type": "uint256"
        }
      ],
      "stateMutability": "view",
      "type": "function"
    },
    {
      "inputs": [],
      "name": "status",
      "outputs": [
        {
          "internalType": "enum BettingGame.BettingGameStatus",
          "name": "",
          "type": "uint8"
        }
      ],
      "stateMutability": "view",
      "type": "function"
    },
    {
      "inputs": [],
      "name": "winner",
      "outputs": [
        {
          "internalType": "address",
          "name": "",
          "type": "address"
        }
      ],
      "stateMutability": "view",
      "type": "function"
    },
    {
      "inputs": [],
      "name": "challenge",
      "outputs": [],
      "stateMutability": "nonpayable",
      "type": "function"
    },
    {
      "inputs": [],
      "name": "cancel",
      "outputs": [],
      "stateMutability": "nonpayable",
      "type": "function"
    },
    {
      "inputs": [],
      "name": "play",
      "outputs": [
        {
          "internalType": "bytes32",
          "name": "requestId",
          "type": "bytes32"
        }
      ],
      "stateMutability": "nonpayable",
      "type": "function"
    },
    {
      "inputs": [
        {
          "internalType": "address",
          "name": "_tokenAddress",
          "type": "address"
        },
        {
          "internalType": "address",
          "name": "_aggregatorAddress",
          "type": "address"
        }
      ],
      "name": "deposit",
      "outputs": [],
      "stateMutability": "nonpayable",
      "type": "function"
    },
    {
      "inputs": [],
      "name": "withdraw",
      "outputs": [],
      "stateMutability": "nonpayable",
      "type": "function"
    }
  ],
  "bytecode": "0x60c06040523480156200001157600080fd5b50604051620013c1380380620013c18339810160408190526200003491620000db565b6001600160a01b0387811660a05286811660805260018690556002859055600380549185166001600160a01b031992831617905560048054909116905560058290556006805460ff191690556200008e4261070862000155565b600755600880546001600160a01b0319166001600160a01b0392909216919091179055506200017c945050505050565b80516001600160a01b0381168114620000d657600080fd5b919050565b600080600080600080600060e0888a031215620000f757600080fd5b6200010288620000be565b96506200011260208901620000be565b955060408801519450606088015193506200013060808901620000be565b925060a088015191506200014760c08901620000be565b905092959891949750929550565b600082198211156200017757634e487b7160e01b600052601160045260246000fd5b500190565b60805160a051611211620001b06000396000818161057501526109e701526000818161045401526109b801526112116000f3fe608060405234801561001057600080fd5b50600436106100ea5760003560e01c806399bc0aea1161008c578063d3522d5111610066578063d3522d51146101c3578063dfbf53ae146101cc578063ea8a1af0146101df578063f9609f08146101e757600080fd5b806399bc0aea14610192578063c5eea4c81461019b578063d2ef7398146101bb57600080fd5b80634d0047ee116100c85780634d0047ee14610143578063534db0e21461015657806393e84cd91461016957806394985ddd1461017f57600080fd5b806302d05d3f146100ef578063200d2ed21461011f5780633ccfd60b14610139575b600080fd5b600354610102906001600160a01b031681565b6040516001600160a01b0390911681526020015b60405180910390f35b60065461012c9060ff1681565b6040516101169190610eb3565b6101416101fa565b005b600854610102906001600160a01b031681565b600454610102906001600160a01b031681565b6101716103b5565b604051908152602001610116565b61014161018d366004610edb565b61056a565b61017160075481565b6101716101a9366004610f19565b600c6020526000908152604090205481565b6101416105ec565b61017160055481565b600a54610102906001600160a01b031681565b610141610793565b6101416101f5366004610f34565b61080d565b6003546001600160a01b031633148061021d57506004546001600160a01b031633145b6102425760405162461bcd60e51b815260040161023990610f67565b60405180910390fd5b60016007544210158061026b5750600160065460ff16600181111561026957610269610e9d565b145b6102b75760405162461bcd60e51b815260206004820152601a60248201527f546869732067616d6520686173206e6f742065787069726564210000000000006044820152606401610239565b600a546001600160a01b0316331461031d5760405162461bcd60e51b8152602060048201526024808201527f596f7520617265206e6f74207468652077696e6e6572206f6620746869732067604482015263616d652160e01b6064820152608401610239565b6009546040516370a0823160e01b81523060048201526001600160a01b03909116906103b190339083906370a082319060240160206040518083038186803b15801561036857600080fd5b505afa15801561037c573d6000803e3d6000fd5b505050506040513d601f19601f820116820180604052508101906103a09190610ff4565b6001600160a01b038416919061094c565b5050565b6003546000906001600160a01b03163314806103db57506004546001600160a01b031633145b6103f75760405162461bcd60e51b815260040161023990610f67565b6000600754421080156104205750600060065460ff16600181111561041e5761041e610e9d565b145b61043c5760405162461bcd60e51b815260040161023990610fc4565b6002546040516370a0823160e01b81523060048201527f00000000000000000000000000000000000000000000000000000000000000006001600160a01b0316906370a082319060240160206040518083038186803b15801561049e57600080fd5b505afa1580156104b2573d6000803e3d6000fd5b505050506040513d601f19601f820116820180604052508101906104d69190610ff4565b10156105385760405162461bcd60e51b815260206004820152602b60248201527f4e6f7420656e6f756768204c494e4b202d2066696c6c20636f6e74726163742060448201526a1dda5d1a0819985d58d95d60aa1b6064820152608401610239565b6105466001546002546109b4565b6000818152600b6020526040902080546001600160a01b0319163317905592915050565b336001600160a01b037f000000000000000000000000000000000000000000000000000000000000000016146105e25760405162461bcd60e51b815260206004820152601f60248201527f4f6e6c7920565246436f6f7264696e61746f722063616e2066756c66696c6c006044820152606401610239565b6103b18282610b3e565b60006003546001600160a01b03163314156106535760405162461bcd60e51b815260206004820152602160248201527f596f7520617265207468652063726561746f72206f6620746869732067616d656044820152602160f81b6064820152608401610239565b6004546001600160a01b0316156106ac5760405162461bcd60e51b815260206004820152601e60248201527f4368616c6c656e67657220706f736974696f6e2069732066696c6c65642100006044820152606401610239565b6000600754421080156106d55750600060065460ff1660018111156106d3576106d3610e9d565b145b6106f15760405162461bcd60e51b815260040161023990610fc4565b6008546005546001600160a01b039091169060009061071890662386f26fc1000090610c63565b60405163079cc67960e41b8152336004820152602481018290529091506001600160a01b038316906379cc679090604401600060405180830381600087803b15801561076357600080fd5b505af1158015610777573d6000803e3d6000fd5b5050600480546001600160a01b03191633179055505050505050565b60016003546001600160a01b031633146107fd5760405162461bcd60e51b815260206004820152602560248201527f596f7520617265206e6f74207468652063726561746f72206f6620746869732060448201526467616d652160d81b6064820152608401610239565b506006805460ff19166001179055565b6003546001600160a01b031633148061083057506004546001600160a01b031633145b61084c5760405162461bcd60e51b815260040161023990610f67565b6000600754421080156108755750600060065460ff16600181111561087357610873610e9d565b145b6108915760405162461bcd60e51b815260040161023990610fc4565b60008290506000816001600160a01b031663feaf968c6040518163ffffffff1660e01b815260040160a06040518083038186803b1580156108d157600080fd5b505afa1580156108e5573d6000803e3d6000fd5b505050506040513d601f19601f820116820180604052508101906109099190611027565b5050509150506000859050600061092c61092584600554610c63565b6064610c76565b90506109436001600160a01b038316333084610c82565b50505050505050565b6040516001600160a01b0383166024820152604481018290526109af90849063a9059cbb60e01b906064015b60408051601f198184030181529190526020810180516001600160e01b03166001600160e01b031990931692909217909152610cc0565b505050565b60007f00000000000000000000000000000000000000000000000000000000000000006001600160a01b0316634000aea07f000000000000000000000000000000000000000000000000000000000000000084866000604051602001610a24929190918252602082015260400190565b6040516020818303038152906040526040518463ffffffff1660e01b8152600401610a51939291906110cf565b602060405180830381600087803b158015610a6b57600080fd5b505af1158015610a7f573d6000803e3d6000fd5b505050506040513d601f19601f82011682018060405250810190610aa391906110ff565b5060008381526020818152604080832054815180840188905280830185905230606082015260808082018390528351808303909101815260a090910190925281519183019190912086845292909152610afd906001611137565b60008581526020818152604091829020929092558051808301879052808201849052815180820383018152606090910190915280519101205b949350505050565b6000828152600b60205260409020546005546001600160a01b0390911690610b669083611165565b610b71906001611137565b6001600160a01b038083166000908152600c6020526040808220939093556003549091168152205415801590610bc057506004546001600160a01b03166000908152600c602052604090205415155b156109af576006805460ff191660011790556004546001600160a01b039081166000908152600c6020526040808220546003549093168252902054600291610c0791611137565b610c119190611165565b610c3c57600354600a80546001600160a01b0319166001600160a01b03909216919091179055505050565b600454600a80546001600160a01b0319166001600160a01b03909216919091179055505050565b6000610c6f8284611179565b9392505050565b6000610c6f8284611198565b6040516001600160a01b0380851660248301528316604482015260648101829052610cba9085906323b872dd60e01b90608401610978565b50505050565b6000610d15826040518060400160405280602081526020017f5361666545524332303a206c6f772d6c6576656c2063616c6c206661696c6564815250856001600160a01b0316610d929092919063ffffffff16565b8051909150156109af5780806020019051810190610d3391906110ff565b6109af5760405162461bcd60e51b815260206004820152602a60248201527f5361666545524332303a204552433230206f7065726174696f6e20646964206e6044820152691bdd081cdd58d8d9595960b21b6064820152608401610239565b6060610b36848460008585843b610deb5760405162461bcd60e51b815260206004820152601d60248201527f416464726573733a2063616c6c20746f206e6f6e2d636f6e74726163740000006044820152606401610239565b600080866001600160a01b03168587604051610e0791906111ac565b60006040518083038185875af1925050503d8060008114610e44576040519150601f19603f3d011682016040523d82523d6000602084013e610e49565b606091505b5091509150610e59828286610e64565b979650505050505050565b60608315610e73575081610c6f565b825115610e835782518084602001fd5b8160405162461bcd60e51b815260040161023991906111c8565b634e487b7160e01b600052602160045260246000fd5b6020810160028310610ed557634e487b7160e01b600052602160045260246000fd5b91905290565b60008060408385031215610eee57600080fd5b50508035926020909101359150565b80356001600160a01b0381168114610f1457600080fd5b919050565b600060208284031215610f2b57600080fd5b610c6f82610efd565b60008060408385031215610f4757600080fd5b610f5083610efd565b9150610f5e60208401610efd565b90509250929050565b60208082526037908201527f596f7520617265206e6f74207468652063726561746f72206f7220746865206360408201527f68616c6c656e676572206f6620746869732067616d6521000000000000000000606082015260800190565b602080825260169082015275546869732067616d652068617320657870697265642160501b604082015260600190565b60006020828403121561100657600080fd5b5051919050565b805169ffffffffffffffffffff81168114610f1457600080fd5b600080600080600060a0868803121561103f57600080fd5b6110488661100d565b945060208601519350604086015192506060860151915061106b6080870161100d565b90509295509295909350565b60005b8381101561109257818101518382015260200161107a565b83811115610cba5750506000910152565b600081518084526110bb816020860160208601611077565b601f01601f19169290920160200192915050565b60018060a01b03841681528260208201526060604082015260006110f660608301846110a3565b95945050505050565b60006020828403121561111157600080fd5b81518015158114610c6f57600080fd5b634e487b7160e01b600052601160045260246000fd5b6000821982111561114a5761114a611121565b500190565b634e487b7160e01b600052601260045260246000fd5b6000826111745761117461114f565b500690565b600081600019048311821515161561119357611193611121565b500290565b6000826111a7576111a761114f565b500490565b600082516111be818460208701611077565b9190910192915050565b602081526000610c6f60208301846110a356fea264697066735822122004862a587cf4161b392a614bfb89dd9c1bcd335e60de58a0ec43890bd95bb33d64736f6c63430008090033",
  "immutableReferences": {
    "73": [
      {
        "length": 32,
        "start": 1108
      },
      {
        "length": 32,
        "start": 2488
      }
    ],
    "75": [
      {
        "length": 32,
        "start": 1397
      },
      {
        "length": 32,
        "start": 2535
      }
    ]
  },
  "source": "// SPDX-License-Identifier: MIT\npragma solidity >=0.4.17 <0.9.0;\n\nimport \"@openzeppelin/contracts/utils/math/SafeMath.sol\";\nimport \"@openzeppelin/contracts/token/ERC20/utils/SafeERC20.sol\";\nimport \"@openzeppelin/contracts/token/ERC20/IERC20.sol\";\nimport \"@chainlink/contracts/src/v0.8/VRFConsumerBase.sol\";\nimport \"@chainlink/contracts/src/v0.8/interfaces/AggregatorV3Interface.sol\";\nimport \"../interfaces/IERC20Burnable.sol\";\n\ncontract BettingGame is VRFConsumerBase {\n    using SafeMath for uint256;\n    using SafeERC20 for IERC20;\n\n    enum BettingGameStatus {\n        OPEN,\n        CLOSED\n    }\n\n    bytes32 internal keyHash;\n    uint256 internal fee;\n    address public creator;\n    address public challenger;\n    uint256 public sides;\n    BettingGameStatus public status;\n    uint256 public expiryTime;\n    address public nativeTokenAddress;\n    address depositTokenAddress;\n    address public winner;\n\n    mapping(bytes32 => address) requestIdToAddressRegistry;\n    mapping(address => uint256) public playerBetRecordRegistry;\n\n    constructor(\n        address _vrfCoordinatorAddress,\n        address _linkTokenAddress,\n        bytes32 _keyHash,\n        uint256 _fee,\n        address _creator,\n        uint256 _sides,\n        address _nativeTokenAddress\n    ) VRFConsumerBase(_vrfCoordinatorAddress, _linkTokenAddress) {\n        keyHash = _keyHash;\n        fee = _fee;\n        creator = _creator;\n        challenger = address(0);\n        sides = _sides;\n        status = BettingGameStatus.OPEN;\n        expiryTime = block.timestamp + 30 minutes;\n        nativeTokenAddress = _nativeTokenAddress;\n    }\n\n    /**\n     * Making sure that `_msgSend` is either a creator or not (depends `isEqual`)\n     */\n    modifier onlyCreator(bool isEqual) {\n        if (isEqual) {\n            require(\n                creator == msg.sender,\n                \"You are not the creator of this game!\"\n            );\n        } else {\n            require(creator != msg.sender, \"You are the creator of this game!\");\n        }\n        _;\n    }\n\n    /**\n     * Making sure that `_msgSend` is either the creator or the challenger of the game\n     */\n    modifier onlyCreatorAndChallenger() {\n        require(\n            msg.sender == creator || msg.sender == challenger,\n            \"You are not the creator or the challenger of this game!\"\n        );\n        _;\n    }\n\n    /**\n     * Making sure that the challenger position is not filled\n     */\n    modifier onlyEmptyChallenger() {\n        require(challenger == address(0), \"Challenger position is filled!\");\n        _;\n    }\n\n    /**\n     * Making sure that this game has either expired or not (depends on `isExpired`)\n     */\n    modifier onlyExpiredGame(bool isExpired) {\n        if (isExpired) {\n            require(\n                block.timestamp >= expiryTime ||\n                    status == BettingGameStatus.CLOSED,\n                \"This game has not expired!\"\n            );\n        } else {\n            require(\n                block.timestamp < expiryTime &&\n                    status == BettingGameStatus.OPEN,\n                \"This game has expired!\"\n            );\n        }\n        _;\n    }\n\n    modifier onlyWinner() {\n        require(msg.sender == winner, \"You are not the winner of this game!\");\n        _;\n    }\n\n    /**\n     * Allow `_msgSend` address to register as a challenger\n     */\n    function challenge()\n        public\n        onlyCreator(false)\n        onlyEmptyChallenger\n        onlyExpiredGame(false)\n    {\n        IERC20Burnable nativeToken = IERC20Burnable(nativeTokenAddress);\n        uint256 burnPrice = SafeMath.mul(0.01 * 10**18, sides);\n        nativeToken.burnFrom(msg.sender, burnPrice);\n\n        challenger = msg.sender;\n    }\n\n    /**\n     *  Cancel the created Betting Game\n     */\n    function cancel() public onlyCreator(true) {\n        status = BettingGameStatus.CLOSED;\n    }\n\n    /**\n     * Allow player `_msgSend` to place a bet on the game\n     */\n    function play()\n        public\n        onlyCreatorAndChallenger\n        onlyExpiredGame(false)\n        returns (bytes32 requestId)\n    {\n        require(\n            LINK.balanceOf(address(this)) >= fee,\n            \"Not enough LINK - fill contract with faucet\"\n        );\n        requestId = requestRandomness(keyHash, fee);\n        requestIdToAddressRegistry[requestId] = msg.sender;\n    }\n\n    /**\n     * This is a function overriden from Chainlink VRF contract to get the randomness result\n     */\n    function fulfillRandomness(bytes32 requestId, uint256 randomness)\n        internal\n        override\n    {\n        address playerAddress = requestIdToAddressRegistry[requestId];\n        playerBetRecordRegistry[playerAddress] = (randomness % sides) + 1;\n\n        if (\n            playerBetRecordRegistry[creator] != 0 &&\n            playerBetRecordRegistry[challenger] != 0\n        ) {\n            // Close the game\n            status = BettingGameStatus.CLOSED;\n\n            if (\n                (playerBetRecordRegistry[creator] +\n                    playerBetRecordRegistry[challenger]) %\n                    2 ==\n                0\n            ) {\n                winner = creator;\n            } else {\n                winner = challenger;\n            }\n        }\n    }\n\n    /**\n     * Handle depositing ERC20 token to the `BettingGame` contract\n     */\n    function deposit(address _tokenAddress, address _aggregatorAddress)\n        public\n        onlyCreatorAndChallenger\n        onlyExpiredGame(false)\n    {\n        AggregatorV3Interface priceFeed = AggregatorV3Interface(\n            _aggregatorAddress\n        );\n\n        // 1. Get Price Feeds Data from Chainlink\n        (, int256 price, , , ) = priceFeed.latestRoundData();\n\n        // 2. Transfer ERC20 token from user to the `BettingGame` contract\n        IERC20 token = IERC20(_tokenAddress);\n        uint256 tokenAmount = SafeMath.div(\n            SafeMath.mul(uint256(price), sides),\n            100\n        );\n        token.safeTransferFrom(msg.sender, address(this), tokenAmount);\n    }\n\n    /**\n     * Handle creator and challenger ERC20 token withdrawal after both have played\n     */\n    function withdraw()\n        public\n        onlyCreatorAndChallenger\n        onlyExpiredGame(true)\n        onlyWinner\n    {\n        IERC20 token = IERC20(depositTokenAddress);\n        token.safeTransfer(msg.sender, token.balanceOf(address(this)));\n    }\n}\n",
  "sourcePath": "/home/yosephkurniasoenggoro/Documents/GitHub/moralis-betting-protocol/Truffle/contracts/betting/BettingGame.sol",
  "compiler": {
    "name": "solc",
    "version": "0.8.9+commit.e5eed63a.Emscripten.clang"
  },
  "schemaVersion": "3.4.3",
  "updatedAt": "2021-11-15T08:20:05.907Z",
  "devdoc": {
    "kind": "dev",
    "methods": {},
    "version": 1
  },
  "userdoc": {
    "kind": "user",
    "methods": {
      "cancel()": {
        "notice": "Cancel the created Betting Game"
      },
      "challenge()": {
        "notice": "Allow `_msgSend` address to register as a challenger"
      },
      "deposit(address,address)": {
        "notice": "Handle depositing ERC20 token to the `BettingGame` contract"
      },
      "play()": {
        "notice": "Allow player `_msgSend` to place a bet on the game"
      },
      "withdraw()": {
        "notice": "Handle creator and challenger ERC20 token withdrawal after both have played"
      }
    },
    "version": 1
  }
}